:020000040800F2
:1000000068180524AD020008D9700008416700088F
:10001000D1700008F10C00084986000800000000BB
:10002000000000000000000000000000F97400085B
:10003000F90C000800000000517100085975000813
:10004000CB020008CB020008CB020008CB0200085C
:10005000CB020008CB020008CB020008CB0200084C
:10006000CB020008CB020008CB020008CB0200083C
:10007000CB020008CB020008CB020008CB0200082C
:10008000CB020008CB020008CB020008CB0200081C
:10009000CB020008CB020008CB020008CB0200080C
:1000A000CB020008CB020008CB020008CB020008FC
:1000B000CB020008CB020008CB020008CB020008EC
:1000C000CB020008CB020008CB020008CB020008DC
:1000D000CB02000839860008CB020008CB020008DA
:1000E000CB020008CB02000800000000CB02000891
:1000F000CB020008CB020008CB020008CB020008AC
:10010000CB020008CB020008CB020008CB0200089B
:10011000CB020008CB020008CB020008CB0200088B
:10012000CB020008CB020008CB020008CB0200087B
:10013000CB020008CB020008CB020008CB0200086B
:1001400000000000000000000000000000000000AF
:10015000CB020008CB020008CB020008CB0200084B
:10016000CB020008CB020008CB020008CB0200083B
:10017000CB020008CB020008CB0200080000000000
:10018000CB020008CB020008CB020008CB0200081B
:10019000CB020008CB020008CB020008CB0200080B
:1001A000CB020008CB020008CB020008CB020008FB
:1001B000CB020008CB020008CB020008CB020008EB
:1001C000CB020008CB020008CB020008CB020008DB
:1001D000CB020008CB020008CB020008CB020008CB
:1001E000CB020008CB020008CB020008CB020008BB
:1001F000CB020008CB020008CB020008CB020008AB
:10020000CB020008CB020008CB020008CB0200089A
:10021000CB020008CB020008CB020008CB0200088A
:10022000CB020008CB020008CB020008000000004F
:10023000CB020008CB02000800000000CB0200083F
:10024000CB020008CB020008CB020008CB0200085A
:10025000CB020008CB020008CB020008CB0200084A
:10026000CB020008CB020008CB020008CB0200083A
:10027000CB020008CB020008CB02000800000000FF
:10028000CB020008CB020008CB02000800000000EF
:1002900000000000CB020008DFF80CD000F0C2F82C
:1002A00000480047F9A30508681805240748804757
:1002B0000748804707480047FEE7FEE7FEE7FEE7FE
:1002C000FEE7FEE7FEE7FEE7FEE7FEE7110D0008AA
:1002D00051760008990200082DE9F05F05460020DC
:1002E00092469B4688460646814640241BE02846A7
:1002F00041464746224600F084F853465A46C01A03
:10030000914110D311461846224600F06BF82D1A81
:1003100067EB01084F4622460120002100F062F8F9
:1003200017EB00094E41201EA4F10104DFDC484612
:1003300031462A464346BDE8F09F2DE9F0410024AE
:10034000061B254671F1000605DA01240027D0EBD3
:10035000070067EB0101161E73F1000605DA00279E
:10036000D2EB0702012567EB0303FFF7B5FF8646D3
:100370000E4617469C46AC4204D00025D0EB050E35
:1003800065EB010624B10020D2EB000760EB030C03
:10039000704631463A466346BDE8F08140EA0103C3
:1003A0009B0703D009E008C9121F08C0042AFAD22B
:1003B00003E011F8013B00F8013B521EF9D27047EF
:1003C000D2B201E000F8012B491EFBD27047002297
:1003D000F6E710B513460A4604461946FFF7F0FF44
:1003E000204610BD202A04DB203A00FA02F100204A
:1003F00070479140C2F1200320FA03F31943904063
:100400007047202A04DB203A21FA02F000217047CD
:1004100021FA02F3D040C2F120029140084319466C
:10042000704700001CB50948009009480190054636
:10043000009C06E0E06840F0010394E8070098475C
:100440001034AC42F6D3FFF72BFF000050D70F0853
:1004500070D70F0870B58C1810F8015B15F0070302
:1004600001D110F8013B2A1106D110F8012B03E04D
:1004700010F8016B01F8016B5B1EF9D12B0705D455
:100480000023521E0DD401F8013BFAE710F8013B9E
:10049000CB1A921C03E013F8015B01F8015B521EBA
:1004A000F9D5A142D8D3002070BD000000000000A3
:1004B00080B582B0019001984FF47A71484300F002
:1004C00003F802B080BD000083B0029041F2040046
:1004D000CEF200000068019000200090029840F2E7
:1004E0000001C2F2004109684DF68362C4F21B327A
:1004F000A1FB0221890C48430090FFE741F2040070
:10050000CEF2000000680199401A0099884201D299
:10051000FFE7F3E703B070474EF6FC51CEF200015F
:10052000086840F08070086041F20000CEF20000E0
:100530000068C00738B9FFE741F20401CEF20001BC
:1005400000200860FFE741F20001CEF200010868D8
:1005500040F001000860704780B582B000F014FAE6
:100560000090009870B1FFE70098008840F2E851D1
:10057000C2F20041088000984088488000208DF831
:10058000070003E001208DF80700FFE79DF8070052
:1005900002B080BD0000000040F2E850C2F200400E
:1005A000083070470000000080B58CB00020049037
:1005B0000B900A900990089007904FF4807001907A
:1005C0000790012002900890099003200A9040F6BD
:1005D0000000C5F60200009007A9069101F0C4FED4
:1005E00006994FF400500390079040F20040C5F682
:1005F0000200059001F0B8FE00980199049A02F0FB
:1006000097F80399049A059802F092F83220FFF7C0
:100610004FFF0399049A059802F08AF80298FFF7B1
:1006200047FF00980199029A02F082F80A20FFF72A
:100630003FFF0399059801F073FD039B049A059809
:10064000069907930892099201F08EFE6420FFF745
:100650002FFF00F00DF80CB080BD0000000000007E
:1006600040F2E850C2F20040807900F0010070478B
:1006700080B582B048F240100DF10301042200F071
:100680005BFC50B9FFE79DF80300392804D1FFE770
:1006900000208DF8070004E0FFE701208DF8070037
:1006A000FFE79DF8070002B080BD000000000000D9
:1006B00080B584B040F2E850C2F20040011D48F21B
:1006C0004E10012200F038FC20B1FFE701208DF828
:1006D0000F0095E040F2E850C2F2004000790006B9
:1006E00000286FD5FFE740F2E851C2F200410091C7
:1006F000087900F00F00487100208DF80A009DF87D
:100700000A1048F24E1000F037FC00984079052896
:1007100057DCFFE740F2E851C2F200410120887146
:1007200000208DF80900FFE79DF8090040F2E8512C
:10073000C2F20041497988423FDAFFE79DF809108B
:1007400042F6BE70C0F6070030F811000DF10B0143
:10075000042200F0F1FB48BBFFE79DF80B009DF879
:100760000C1040EA0120ADF806009DF80D009DF840
:100770000E1040EA0120ADF8040040F2E851C2F248
:10078000004131F8080BBDF80420801A9DF80920BB
:1007900002EB420221F81200BDF806009DF8092084
:1007A00002EB420201EB42014880FFE7FFE79DF8C0
:1007B000090001308DF80900B6E700208DF80F0020
:1007C0001EE0FFE740F2E850C2F20040007900F07E
:1007D0008F00802808D0FFE740F2E850C2F20040C6
:1007E0000079000740B9FFE740F2E851C2F200414A
:1007F000002088714871FFE701208DF80F00FFE7A6
:100800009DF80F0004B080BD80B586B0ADF816002D
:1008100040F24870C2F2004001884288514304917E
:1008200001880139408801388AB283B20021084624
:1008300000F0B6F90498C0080390049800F007008F
:100840000290FFE70398411E0391E8B1FFE7BDF86E
:1008500016000021C6F2020101910880BDF81600C1
:100860000880BDF816000880BDF816000880BDF8A5
:1008700016000880BDF816000880BDF81600088034
:10088000BDF816000880DDE7FFE70298411E0291DF
:1008900038B1FFE7BDF816000021C6F2020108805A
:1008A000F3E706B080BD000080B586B0DDF820C05B
:1008B000ADF81600ADF81410ADF81220ADF81030F8
:1008C000BDF81200BDF81610401A0130BDF8101026
:1008D000BDF81420891A013148430390BDF8160071
:1008E000BDF81410BDF81220BDF8103000F058F912
:1008F0000398C0080290039800F007000190FFE7FA
:100900000298411E029168B3FFE70898811C089184
:1009100000880021C6F20201009108800898821C1C
:100920000892008808800898821C08920088088035
:100930000898821C0892008808800898821C0892F7
:10094000008808800898821C08920088088008980F
:10095000821C0892008808800898821C08920088EF
:100960000880CDE7FFE70198411E019148B1FFE7FC
:100970000898811C089100880021C6F202010880B5
:10098000F1E706B080BD000040F24870C2F20040BE
:10099000704700000000000080B590B0F0200C907F
:1009A00000F09AF9C3200B9000F08AF90C9800F03F
:1009B00093F9962000F084F936200A9000F08CF923
:1009C000682000F07DF93A2000F086F9052000F05B
:1009D00077F9B02000F080F98020029000F070F9E3
:1009E000B62000F079F9202000F06AF90220019089
:1009F00000F066F9B52000F06FF9019800F060F999
:100A000003200F9000F05CF90020039000F058F9EB
:100A1000042000F055F9B12000F05EF9029800F0D2
:100A20004FF9102000F04CF9B42000F055F903986C
:100A300000F046F9B72000F04FF9C62000F040F969
:100A4000C52000F049F9242000F03AF9E42000F034
:100A500043F9312000F034F9E82000F03DF940205E
:100A600000F02EF98A2000F02BF9039800F028F905
:100A7000039800F025F929200E9000F021F91920A3
:100A800000F01EF9A52000F01BF9332000F018F942
:100A9000E02000F021F90C9800F012F909200590EF
:100AA00000F00EF913200D9000F00AF912200490C6
:100AB00000F006F9049800F003F92B2000F000F98B
:100AC0003C2000F0FDF84420069000F0F9F84B209F
:100AD00000F0F6F81B2000F0F3F8182000F0F0F812
:100AE0001720079000F0ECF81D20089000F0E8F8BF
:100AF0002120099000F0E4F8E12000F0EDF80C98D6
:100B000000F0DEF8059800F0DBF80D9800F0D8F85A
:100B10000C2000F0D5F80D2000F0D2F8272000F0CE
:100B2000CFF83B2000F0CCF8069800F0C9F84D2033
:100B300000F0C6F80B2000F0C3F8079800F0C0F8EA
:100B4000079800F0BDF8089800F0BAF8099800F08E
:100B5000B7F80A9800F0C0F8EC2000F0B1F80C9853
:100B600000F0BAF80B9800F0ABF80C9800F0B4F86D
:100B7000692000F0A5F80D9800F0AEF8112000F003
:100B8000ABF8782001F02CFA0E9800F0A5F80F9839
:100B900000F03EF84FF6FF70FFF736FE10B080BD54
:100BA00080B582B0ADF80600ADF80410ADF80220B3
:100BB000ADF800302A2000F08FF89DF8070000F013
:100BC0007FF89DF8060000F07BF89DF8030000F028
:100BD00077F89DF8020000F073F82B2000F07CF805
:100BE0009DF8050000F06CF89DF8040000F068F82E
:100BF0009DF8010000F064F89DF8000000F060F836
:100C00002C2000F069F802B080BD00000000000058
:100C100080B582B08DF807009DF80700014600916D
:100C2000032848D80099DFE801F00213243540F288
:100C30004871C2F200414FF4A07008804FF4F07088
:100C40004880362000F048F8482000F039F832E0BB
:100C500040F24871C2F200414FF4F07008804FF446
:100C6000A0704880362000F037F8282000F028F8DF
:100C700021E040F24871C2F200414FF4A0700880B8
:100C80004FF4F0704880362000F026F8982000F0ED
:100C900017F810E040F24871C2F200414FF4F070D2
:100CA00008804FF4A0704880362000F015F8F82036
:100CB00000F006F8FFE702B080BD00000000000071
:100CC00081B0ADF80200BDF802000021C6F20201B9
:100CD000088001B07047000081B0ADF80200BDF897
:100CE00002004FF0C041088001B0704700000000D2
:100CF000FFE7FEE700000000704700000000000072
:100D000081B0EFF3108072B60090FFE7FEE70000BD
:100D100044F60C01C5F60201086840F002000860C4
:100D2000FFE744F60400C5F60200006880040028CE
:100D300001D4FFE7F5E7704780B584B003900291D6
:100D4000019200930098B0F5804F1DD1FFE7039802
:100D5000019950F821000021CCF6F0710840029B67
:100D60001968D3F804E0D3F808C0DA6841EA0E1134
:100D700041EA0C219B69194341EA02410843039966
:100D8000019A41F8220006E00399019A6FF0704041
:100D900041F82200FFE7002004B080BD0000000001
:100DA00080B586B00590049105990498026851F8C1
:100DB000220020F0010041F82200049880680828F1
:100DC00003D1FFE74020039002E000200390FFE7FB
:100DD000039804990091D1F804E0D1F808C0CB68D9
:100DE0000A6940EA0E0040EA0C00184310434A69C1
:100DF00010438A691043CA6910430A6A10434A6A59
:100E000010438A6A1043C96A084302900498016B30
:100E10000298084302900498416B0298084302909C
:100E20000498816B0298084302904FF67F30C0F21D
:100E300008000190019840F480100190019840F45E
:100E400000100190019840F4E02001900598049969
:100E5000096850F8210001998843029908430599CF
:100E6000049A126841F822000498006BB0F5801FC4
:100E70000ED1FFE70498006850B1FFE705980068BD
:100E800020F480100499096B084305990860FFE776
:100E90000498006838B1FFE70498426B0599086828
:100EA00010430860FFE7002006B080BD000000008E
:100EB00084B003900291019202990868D1F804C0AD
:100EC0008B68CA6840EA0C1040EA032040EA0240FE
:100ED0000B690022CFF6F07202EB035210434A690D
:100EE000FE3240EA0260896908430399019A01EBE6
:100EF0008201486003980068C002002818D5FFE707
:100F00000398406820F47000009002980169002066
:100F1000CFF6F07000EB0151009808430090039861
:100F2000406820F470000099084303994860FFE787
:100F3000002004B07047000080B586B0ADF8160000
:100F400004918DF80F20BDF8162004989DF80F30FD
:100F500069464FF0640CC1F808C04B60086040F26D
:100F60001060C2F20040BB21022301F035FD0028D1
:100F700018BF012006B080BD80B584B0ADF80E006A
:100F80008DF80D10BDF80E206946642088600120A0
:100F900048600DF10D00086040F21060C2F20040A0
:100FA000BA21022301F060FE002818BF012004B01E
:100FB00080BD00000000000080B58AB0089001F0FC
:100FC000D7FB0490089828B9FFE701208DF8270087
:100FD00000F0AABC089890F8350002280ED0FFE770
:100FE000089980204865FFE70899002081F83400BF
:100FF000FFE701208DF8270000F096BC08980168F3
:1010000001201022C4F202029142039000F0A3805A
:10101000FFE70898016801202822C4F202029142E9
:10102000039000F09880FFE70898016801204022B3
:10103000C4F202029142039000F08D80FFE708980D
:10104000016801205822C4F202029142039000F08C
:101050008280FFE70898016801207022C4F2020232
:101060009142039077D0FFE7089801680120882219
:10107000C4F20202914203906DD0FFE70898016824
:101080000120A022C4F202029142039063D0FFE744
:10109000089801680120B822C4F20202914203902C
:1010A00059D0FFE708980168012040F21042C4F2CD
:1010B0000202914203904ED0FFE708980168012098
:1010C00040F22842C4F202029142039043D0FFE76B
:1010D00008980168012040F24042C4F202029142A5
:1010E000039038D0FFE708980168012040F2584289
:1010F000C4F20202914203902DD0FFE708980168E4
:10110000012040F27042C4F202029142039022D0C8
:10111000FFE708980168012040F28842C4F2020209
:101120009142039017D0FFE708980168012040F230
:10113000A042C4F20202914203900CD0FFE708984B
:1011400000684FF64831CBF6FD710844B0FA80F0E4
:1011500040090390FFE70398C00780B1FFE70898B4
:101160000168086820F01E00086008980168486956
:1011700020F08000486108980068059009E0089810
:101180000168086820F00E00086008980068059063
:10119000FFE70898016801201022C4F20202914280
:1011A000029000F00381FFE70898016801202822DF
:1011B000C4F202029142029000F0F880FFE7089822
:1011C000016801204022C4F202029142029000F024
:1011D000ED80FFE70898016801205822C4F202025E
:1011E0009142029000F0E280FFE708980168012038
:1011F0007022C4F202029142029000F0D780FFE711
:101200000898016801208822C4F2020291420290EB
:1012100000F0CC80FFE7089801680120A022C4F20A
:1012200002029142029000F0C180FFE70898016835
:101230000120B822C4F202029142029000F0B6806E
:10124000FFE708980168012040F21042C4F2020250
:101250009142029000F0AA80FFE7089801680120FF
:1012600040F22842C4F202029142029000F09E80B5
:10127000FFE708980168012040F24042C4F20202F0
:101280009142029000F09280FFE7089801680120E7
:1012900040F25842C4F202029142029000F086806D
:1012A000FFE708980168012040F27042C4F2020290
:1012B000914202907AD0FFE708980168012040F23D
:1012C0008842C4F20202914202906FD0FFE7089870
:1012D0000168012040F2A042C4F202029142029051
:1012E00064D0FFE708980168012040F2B842C4F2D8
:1012F00002029142029059D0FFE70898016801204C
:1013000045F20842C5F60202914202904ED0FFE734
:1013100008980168012045F21C42C5F6020291427C
:10132000029043D0FFE708980168012045F230425F
:10133000C5F602029142029038D0FFE70898016892
:10134000012045F24442C5F60202914202902DD09E
:10135000FFE708980168012045F25842C5F60202ED
:101360009142029022D0FFE708980168012045F2DF
:101370006C42C5F602029142029017D0FFE708982E
:101380000168012045F28042C5F6020291420290B6
:101390000CD0FFE7089800684AF66C31CAF2FD717C
:1013A0000844B0FA80F040090290FFE70298C007B5
:1013B00038B1FFE70898016E086820F48070086073
:1013C000FFE7089800681021C4F20201884200F08B
:1013D0008180FFE7089800682821C4F20201884252
:1013E00078D0FFE7089800684021C4F202018842E3
:1013F00070D0FFE7089800685821C4F202018842C3
:1014000068D0FFE7089800687021C4F202018842A2
:1014100060D0FFE7089800688821C4F20201884282
:1014200058D0FFE708980068A021C4F20201884262
:1014300050D0FFE708980068B821C4F20201884242
:1014400048D0FFE70898006840F21041C4F202015A
:1014500088423FD0FFE70898006840F22841C4F274
:101460000201884236D0FFE70898006840F2404108
:10147000C4F2020188422DD0FFE70898006840F2CC
:101480005841C4F20201884224D0FFE7089800685E
:1014900040F27041C4F2020188421BD0FFE7089875
:1014A000006840F28841C4F20201884212D0FFE78E
:1014B0000898006840F2A041C4F20201884209D0B5
:1014C000FFE70898006840F2B841C4F20201884280
:1014D00007D1FFE708980168086820F0010008605C
:1014E00006E008980168086820F001000860FFE73E
:1014F000FFE705980068C007C8B1FFE701F038F9B9
:101500000499401A062811D3FFE70899202048655E
:101510000899032081F83500FFE70899002081F839
:101520003400FFE701208DF82700FDE1E1E708988E
:10153000016801201022C4F202029142019000F0E1
:10154000A380FFE70898016801202822C4F2020264
:101550009142019000F09880FFE70898016801200F
:101560004022C4F202029142019000F08D80FFE718
:101570000898016801205822C4F2020291420190A9
:1015800000F08280FFE70898016801207022C4F211
:1015900002029142019077D0FFE70898016801208C
:1015A0008822C4F20202914201906DD0FFE70898B0
:1015B00001680120A022C4F202029142019063D08E
:1015C000FFE7089801680120B822C4F202029142A4
:1015D000019059D0FFE708980168012040F21042BD
:1015E000C4F20202914201904ED0FFE708980168D0
:1015F000012040F22842C4F202029142019043D0FD
:10160000FFE708980168012040F24042C4F202025C
:101610009142019038D0FFE708980168012040F21C
:101620005842C4F20202914201902DD0FFE708987F
:101630000168012040F27042C4F20202914201901E
:1016400022D0FFE708980168012040F28842C4F2E6
:1016500002029142019017D0FFE70898016801202B
:1016600040F2A042C4F20202914201900CD0FFE786
:10167000089800684FF64831CBF6FD710844B0FA7F
:1016800080F040090190FFE70198C00760B1FFE7D3
:101690000898806D07900898C06D00F01F013F20EA
:1016A0008840079988600BE00898806D069008983C
:1016B000C06D00F01F010120884006994860FFE7D7
:1016C0000898016801201022C4F2020291420090A1
:1016D00000F00381FFE70898016801202822C4F286
:1016E00002029142009000F0F880FFE7089801683C
:1016F00001204022C4F202029142009000F0ED80ED
:10170000FFE70898016801205822C4F202029142C2
:10171000009000F0E280FFE7089801680120702245
:10172000C4F202029142009000F0D780FFE70898CF
:10173000016801208822C4F202029142009000F068
:10174000CC80FFE7089801680120A022C4F20202C1
:101750009142009000F0C180FFE7089801680120E5
:10176000B822C4F202029142009000F0B680FFE776
:1017700008980168012040F21042C4F2020291422E
:10178000009000F0AA80FFE708980168012040F26D
:101790002842C4F202029142009000F09E80FFE7CE
:1017A00008980168012040F24042C4F202029142CE
:1017B000009000F09280FFE708980168012040F255
:1017C0005842C4F202029142009000F08680FFE786
:1017D00008980168012040F27042C4F2020291426E
:1017E00000907AD0FFE708980168012040F2884213
:1017F000C4F20202914200906FD0FFE7089801689E
:10180000012040F2A042C4F202029142009064D052
:10181000FFE708980168012040F2B842C4F20202D2
:101820009142009059D0FFE708980168012045F2E5
:101830000842C5F60202914200904ED0FFE7089898
:101840000168012045F21C42C5F602029142009057
:1018500043D0FFE708980168012045F23042C5F601
:1018600002029142009038D0FFE7089801680120F9
:1018700045F24442C5F60202914200902DD0FFE7A6
:1018800008980168012045F25842C5F602029142CB
:10189000009022D0FFE708980168012045F26C42D1
:1018A000C5F602029142009017D0FFE70898016840
:1018B000012045F28042C5F60202914200900CD010
:1018C000FFE7089800684AF66C31CAF2FD710844D7
:1018D000B0FA80F040090090FFE70098C007A0B17F
:1018E000FFE70898416E806E48600898C06E58B156
:1018F000FFE70898C16E086820F4807008600898B7
:10190000016F406F4860FFE7FFE70899012081F809
:101910003500FFE70899002081F83400FFE7FFE772
:1019200000208DF82700FFE79DF827000AB080BD52
:1019300080B586B00490049820B9FFE701208DF8A7
:10194000170046E3049890F83500022807D0FFE717
:1019500004998020486501208DF8170039E3049828
:10196000016801201022C4F202029142029000F0AC
:10197000A380FFE70498016801202822C4F2020234
:101980009142029000F09880FFE7049801680120DE
:101990004022C4F202029142029000F08D80FFE7E3
:1019A0000498016801205822C4F202029142029078
:1019B00000F08280FFE70498016801207022C4F2E1
:1019C00002029142029077D0FFE70498016801205B
:1019D0008822C4F20202914202906DD0FFE704987F
:1019E00001680120A022C4F202029142029063D059
:1019F000FFE7049801680120B822C4F20202914274
:101A0000029059D0FFE704980168012040F210428B
:101A1000C4F20202914202904ED0FFE7049801689E
:101A2000012040F22842C4F202029142029043D0C7
:101A3000FFE704980168012040F24042C4F202022C
:101A40009142029038D0FFE704980168012040F2EB
:101A50005842C4F20202914202902DD0FFE704984E
:101A60000168012040F27042C4F2020291420290E9
:101A700022D0FFE704980168012040F28842C4F2B6
:101A800002029142029017D0FFE7049801680120FA
:101A900040F2A042C4F20202914202900CD0FFE751
:101AA000049800684FF64831CBF6FD710844B0FA4F
:101AB00080F040090290FFE70298C007002800F07C
:101AC0009D80FFE70499042081F8350004980068A0
:101AD0001021C4F20201884200F08180FFE70498DF
:101AE00000682821C4F20201884278D0FFE70498F8
:101AF00000684021C4F20201884270D0FFE70498D8
:101B000000685821C4F20201884268D0FFE70498B7
:101B100000687021C4F20201884260D0FFE7049897
:101B200000688821C4F20201884258D0FFE7049877
:101B30000068A021C4F20201884250D0FFE7049857
:101B40000068B821C4F20201884248D0FFE7049837
:101B5000006840F21041C4F2020188423FD0FFE722
:101B60000498006840F22841C4F20201884236D04D
:101B7000FFE70498006840F24041C4F20201884245
:101B80002DD0FFE70498006840F25841C4F20201EA
:101B9000884224D0FFE70498006840F27041C4F204
:101BA000020188421BD0FFE70498006840F2884198
:101BB000C4F20201884212D0FFE70498006840F2A4
:101BC000A041C4F20201884209D0FFE704980068EE
:101BD00040F2B841C4F20201884207D1FFE70498FD
:101BE0000168086820F00100086006E004980168B8
:101BF000086820F001000860FFE7E5E1049801684B
:101C0000086820F00E000860049800681021C4F2F3
:101C10000201884200F08180FFE7049800682821D3
:101C2000C4F20201884278D0FFE70498006840219E
:101C3000C4F20201884270D0FFE70498006858217E
:101C4000C4F20201884268D0FFE70498006870215E
:101C5000C4F20201884260D0FFE70498006888213E
:101C6000C4F20201884258D0FFE704980068A0211E
:101C7000C4F20201884250D0FFE704980068B821FE
:101C8000C4F20201884248D0FFE70498006840F29D
:101C90001041C4F2020188423FD0FFE70498006877
:101CA00040F22841C4F20201884236D0FFE704988E
:101CB000006840F24041C4F2020188422DD0FFE7A3
:101CC0000498006840F25841C4F20201884224D0CE
:101CD000FFE70498006840F27041C4F202018842B4
:101CE0001BD0FFE70498006840F28841C4F202016B
:101CF000884212D0FFE70498006840F2A041C4F285
:101D00000201884209D0FFE70498006840F2B84118
:101D1000C4F20201884207D1FFE70498016808680D
:101D200020F00100086006E004980168086820F0CF
:101D300001000860FFE70498016801201022C4F246
:101D400002029142019000F00381FFE704980168CC
:101D500001202822C4F202029142019000F0F88092
:101D6000FFE70498016801204022C4F20202914278
:101D7000019000F0ED80FFE70498016801205822EF
:101D8000C4F202029142019000F0E280FFE7049861
:101D9000016801207022C4F202029142019000F019
:101DA000D780FFE70498016801208822C4F202026C
:101DB0009142019000F0CC80FFE704980168012077
:101DC000A022C4F202029142019000F0C180FFE71C
:101DD000049801680120B822C4F2020291420190E5
:101DE00000F0B680FFE704980168012040F210423D
:101DF000C4F202029142019000F0AA80FFE7049829
:101E00000168012040F22842C4F20202914201908E
:101E100000F09E80FFE704980168012040F24042F4
:101E2000C4F202029142019000F09280FFE7049810
:101E30000168012040F25842C4F20202914201902E
:101E400000F08680FFE704980168012040F27042AC
:101E5000C4F20202914201907AD0FFE7049801682F
:101E6000012040F28842C4F20202914201906FD0F8
:101E7000FFE704980168012040F2A042C4F2020288
:101E80009142019064D0FFE704980168012040F27C
:101E9000B842C4F202029142019059D0FFE704987F
:101EA0000168012045F20842C5F602029142019004
:101EB0004ED0FFE704980168012045F21C42C5F6A8
:101EC00002029142019043D0FFE70498016801208B
:101ED00045F23042C5F602029142019038D0FFE748
:101EE00004980168012045F24442C5F6020291427D
:101EF00001902DD0FFE704980168012045F2584277
:101F0000C5F602029142019022D0FFE704980168D1
:101F1000012045F26C42C5F602029142019017D0B1
:101F2000FFE704980168012045F28042C5F60202ED
:101F3000914201900CD0FFE7049800684AF66C319A
:101F4000CAF2FD710844B0FA80F040090190FFE741
:101F50000198C00728B3FFE70498016E086820F4D1
:101F6000807008600498806D03900498C06D00F044
:101F70001F0101208840039948600498416E806EDB
:101F800048600498C06E58B1FFE70498C16E0868B5
:101F900020F4807008600498016F406F4860FFE78C
:101FA000FFE70499012081F83500FFE7049900203C
:101FB00081F83400FFE70498006D20B1FFE7049832
:101FC000016D8847FFE7FFE7FFE700208DF8170066
:101FD000FFE79DF8170006B080BD0000000000007C
:101FE00080B584B0039000F0C3FB02900398019089
:101FF0000198013048B1FFE740F2B850C2F200400A
:102000000178019808440190FFE7FFE700F0B0FB7A
:102010000299401A0199884201D2FFE7F6E704B01D
:1020200080BD00000000000080B5BEB000203D90E3
:102030003C903B903A90399040F2C850C2F2004038
:10204000006808B1FFE767E040F2C851C2F2004102
:102050000120086008A80690C021FEF7B8F906988C
:10206000002109914FF0807208921A9101F0D0FB83
:1020700018B1FFE7FEF744FEFFE7FFE744F2D44064
:10208000C5F60200016841F480510160006800F467
:10209000805007900798FFE74FF680703990022034
:1020A00002903A90002003903B90032004903C90D3
:1020B0000C2001903D9041F20000C5F6020039A9C4
:1020C000059100F051F90198DDF808C0039B049ACE
:1020D00005994CF6337ECDF8E4E0CDF8E8C03B93AB
:1020E0003C923D9040F60040C5F6020000F03CF9FD
:1020F000029B039A049805994FF0800CCDF8E4C038
:102100003A933B923C9009203D9040F60000C5F682
:10211000020000F029F9FFE73EB080BD000000009A
:1021200090B00F900E9100200D908020C5F6000019
:102130000A90FFE70E980D99C840002800F0118121
:10214000FFE70E980D9A0121914008400C900C98E1
:10215000002800F00281FFE70D9820F0030040F214
:102160000841C5F6000140580B900D9800F003009F
:1021700081000F2000FA01F10B9808400B900B989A
:1021800009900F980021C5F60201884203D1FFE7AC
:10219000002008907AE00F9840F20041C5F6020155
:1021A000884203D1FFE7012007906CE00F9840F6CA
:1021B0000001C5F60201884203D1FFE70220069024
:1021C0005EE00F9840F60041C5F60201884203D157
:1021D000FFE70320059050E00F9841F20001C5F69B
:1021E0000201884203D1FFE70420049042E00F98E7
:1021F00041F20041C5F60201884203D1FFE7052004
:10220000039034E00F9841F60001C5F602018842C0
:1022100003D1FFE70620029026E00F9841F6004127
:10222000C5F60201884203D1FFE70720019018E0BC
:102230000F9842F20001C5F60201884203D1FFE780
:10224000082000900AE00F9942F20042C5F602020F
:102250000A20914208BF09200090FFE700980190F2
:10226000FFE701980290FFE702980390FFE70398C9
:102270000490FFE704980590FFE705980690FFE7B4
:1022800006980790FFE707980890FFE709980899D4
:102290000D9A02F003029200914088422AD1FFE792
:1022A0000C9A0A990868904308600C9A0A99486841
:1022B000904348600C9A0421C5F6000108689043D9
:1022C00008600C9A4FF0B0410868904308600D9880
:1022D00000F0030081000F2088400B900B9B0D98AD
:1022E00020F0030140F20842C5F6000288589843E6
:1022F0008850FFE70D984100032000FA01F30F9A80
:10230000116819431160DDF834C00CF007018A0030
:102310000F2101FA02F30F996FF0030202EA5C0247
:102320000A44116A994311620D99490000FA01F3B8
:102330000F9AD1689943D1600D9A012101FA02F3F5
:102340000F9A5168994351600D99490000FA01F2C2
:102350000F99886890438860FFE70D9801300D90D1
:10236000E8E610B07047000090B00F900E9100208A
:102370000D908020C5F600000A90FFE70E980068D7
:102380000D99C840002800F0CF81FFE70E98006843
:102390000D9A0121914008400C900C98002800F003
:1023A000BF81FFE70E98406800F00300012807D0C6
:1023B000FFE70E98406800F0030002282FD1FFE7E6
:1023C0000F9880680B900D984100032000FA01F1EE
:1023D0000B9888430B900E98C0680D99490000FA3D
:1023E00001F10B9808430B900B980F9988600F9898
:1023F00040680B900D99012000FA01F10B98884379
:102400000B900E984068C0F300100D9900FA01F18E
:102410000B9808430B900B980F994860FFE70E98B4
:10242000406800F00300032818D0FFE70F98C06849
:102430000B900D984100032000FA01F10B9888439E
:102440000B900E9880680D99490000FA01F10B98E5
:1024500008430B900B980F99C860FFE70E984068EF
:1024600000F00300022826D1FFE70F980D996FF0C6
:10247000030202EA51010844006A0B900D9800F033
:10248000070081000F2000FA01F10B9888430B90A0
:102490000E9800690D9901F00701890000FA01F119
:1024A0000B9808430B900B980F990D9B02EA53026F
:1024B00011440862FFE70F9800680B900D984100E7
:1024C000032000FA01F10B9888430B900E984068A6
:1024D00000F003000D99490000FA01F10B98084340
:1024E0000B900B980F9908600E9880798007002850
:1024F00000F01581FFE7FFE744F2F440C5F6020063
:10250000016841F002010160006800F002000990DA
:102510000998FFE70D9820F0030040F20841C5F646
:10252000000140580B900D9800F0030081000F202F
:1025300000FA01F10B9888430B900F980021C5F623
:102540000201884203D1FFE7002008907AE00F984B
:1025500040F20041C5F60201884203D1FFE70120A5
:1025600007906CE00F9840F60001C5F60201884222
:1025700003D1FFE7022006905EE00F9840F600418D
:10258000C5F60201884203D1FFE70320059050E021
:102590000F9841F20001C5F60201884203D1FFE71E
:1025A0000420049042E00F9841F20041C5F6020178
:1025B000884203D1FFE70520039034E00F9841F6ED
:1025C0000001C5F60201884203D1FFE70620029010
:1025D00026E00F9841F60041C5F60201884203D17A
:1025E000FFE70720019018E00F9842F20001C5F6BE
:1025F0000201884203D1FFE7082000900AE00F990A
:1026000042F20042C5F602020A20914208BF0920A8
:102610000090FFE700980190FFE701980290FFE724
:1026200002980390FFE703980490FFE70498059051
:10263000FFE705980690FFE706980790FFE70798E1
:102640000890FFE708980D9901F00301890000FA4E
:1026500001F10B9808430B900B980D9921F00301A1
:1026600040F20842C5F6000288504FF0B0400068C2
:102670000B900C990B9888430B900E988079C006AC
:10268000002805D5FFE70C990B9808430B90FFE74E
:102690000B984FF0B04108600420C5F600000068B8
:1026A0000B900C990B9888430B900E9880798006BC
:1026B000002805D5FFE70C990B9808430B90FFE71E
:1026C0000B980421C5F6000108600A9840680B9039
:1026D0000C990B9888430B900E98807980070028FE
:1026E00005D5FFE70C990B9808430B90FFE70B9873
:1026F0000A9948600A9800680B900C990B988843D7
:102700000B900E988079C00728B1FFE70C990B98C1
:1027100008430B90FFE70B980A990860FFE7FFE773
:102720000D9801300D9029E610B0704700000000B0
:1027300082B00190ADF802108DF801209DF80100E3
:1027400028B1FFE7BDF802000199886105E0BDF8F6
:102750000200000401998861FFE702B070470000A1
:1027600041F20000C5F600400068000C7047000010
:102770004FF66000C2F2044000687047000000009D
:1027800083B001900091019890F8410020283BD13E
:10279000FFE7FFE7019890F84000012804D1FFE728
:1027A00002208DF80B0033E00199012081F84000F0
:1027B000FFE7FFE70199242081F8410001980168B3
:1027C000086820F00100086001980168086820F49A
:1027D00080500860009A01980168086810430860FA
:1027E00001980168086840F0010008600199202004
:1027F00081F84100FFE70199002081F84000FFE7E0
:1028000000208DF80B0003E002208DF80B00FFE79D
:102810009DF80B0003B0704784B0029001910298BC
:1028200090F84100202840D1FFE7FFE7029890F898
:102830004000012804D1FFE702208DF80F0038E0A6
:102840000299012081F84000FFE7FFE70299242068
:1028500081F8410002980168086820F001000860D2
:102860000298006800680090009820F47060009062
:102870000199009840EA01200090009802990968A7
:10288000086002980168086840F001000860029939
:10289000202081F84100FFE70299002081F84000E4
:1028A000FFE700208DF80F0003E002208DF80F00F5
:1028B000FFE79DF80F0004B0704700000000000023
:1028C00080B582B00090009820B9FFE701208DF814
:1028D00007007BE0009890F8410040B9FFE70099BD
:1028E000002081F84000009800F0FAFAFFE7009914
:1028F000242081F8410000980168086820F0010058
:10290000086000980168406820F0706008610098D5
:102910000168886820F4004088600098C068012839
:1029200007D1FFE700980168806840F400408860A4
:1029300006E000980168806840F404408860FFE782
:102940000098C068022807D1FFE70098016848682E
:1029500040F40060486006E000980168486820F490
:1029600000604860FFE700980168486848F200028C
:10297000C0F200221043486000980168C86820F443
:102980000040C860009A1168106953699269184341
:1029900040EA0220C860009A1168D069126A1043A8
:1029A000086000980168086840F00100086000991C
:1029B00000204864009A202182F8411000990863A1
:1029C000009981F842008DF80700FFE79DF80700A5
:1029D00002B080BD0000000010B588B084460C989D
:1029E0000B98DDF828E0CDF818C0ADF81610ADF85A
:1029F0001420ADF81230ADF81000069890F84100A0
:102A0000202840F02681FFE70A9820B1FFE7BDF8B3
:102A1000100040B9FFE706994FF4007048640120A8
:102A20008DF81F0019E1FFE7069890F84000012893
:102A300004D1FFE702208DF81F000EE10699012066
:102A400081F84000FFE7FFE7FFF792FE039006984A
:102A500003996A4611604FF400410122192304F0E2
:102A60007FF820B1FFE701208DF81F00F5E00699FF
:102A7000222081F841000699402081F84200069901
:102A8000002048640A99069A5162BDF81010069A0F
:102A90005185069948630698BDF81610BDF81420B4
:102AA000BDF81230DDF830C0039CEE46CEF804408D
:102AB000CEF800C003F068FF50B1FFE7FFE70699CA
:102AC000002081F84000FFE701208DF81F00C4E0DE
:102AD0000698408DB0F5807F14D3FFE70699FF205C
:102AE00008850698BDF8161090F82820EC4642F2AA
:102AF0000043C8F20003CCF800304FF0807304F0BC
:102B000003F814E00698408D069908850698BDF8EC
:102B1000161090F82820EC4642F20043C8F2000359
:102B2000CCF800304FF0007303F0EEFFFFE7FFE753
:102B300006980C9B03996A4611600421002204F058
:102B40000FF820B1FFE701208DF81F0085E00698FF
:102B50000068406A0699496A08700699486A013017
:102B600048620699088D013808850699488D013814
:102B700048850698408DE8B3FFE70698008DC8BBEE
:102B8000FFE706980C9B03996A461160802100229A
:102B900003F0E6FF20B1FFE701208DF81F005CE0A5
:102BA0000698408DB0F5807F11D3FFE70699FF208E
:102BB00008850698BDF8161090F82820EC460023EA
:102BC000CCF800304FF0807303F09EFF11E00698C0
:102BD000408D069908850698BDF8161090F82820B3
:102BE000EC460023CCF800304FF0007303F08CFF6C
:102BF000FFE7FFE7FFE70698408D002898D1FFE741
:102C000006980C99039A04F00FF820B1FFE7012011
:102C10008DF81F0021E0069801682020C861069900
:102C20000A6851684EF60003CFF600631940516000
:102C3000069981F841000699002081F84200FFE7DB
:102C40000699002081F84000FFE700208DF81F0062
:102C500003E002208DF81F00FFE79DF81F0008B079
:102C600010BD00000000000010B588B084460C982C
:102C70000B98DDF828E0CDF818C0ADF81610ADF8C7
:102C80001420ADF81230ADF81000069890F841000D
:102C9000202840F01B81FFE70A9820B1FFE7BDF82C
:102CA000100040B9FFE706994FF400704864012016
:102CB0008DF81F000EE1FFE7069890F8400001280C
:102CC00004D1FFE702208DF81F0003E106990120DF
:102CD00081F84000FFE7FFE7FFF74AFD0390069801
:102CE00003996A4611604FF400410122192303F051
:102CF00037FF20B1FFE701208DF81F00EAE00699B9
:102D0000212081F841000699402081F8420006996F
:102D1000002048640A99069A5162BDF81010069A7C
:102D20005185069948630698BDF81610BDF8142021
:102D3000BDF81230DDF830C0039CEE46CEF80440FA
:102D4000CEF800C003F080FE50B1FFE7FFE7069920
:102D5000002081F84000FFE701208DF81F00B9E056
:102D60000698408DB0F5807F11D3FFE70699FF20CC
:102D700008850698BDF8161090F82820EC46002328
:102D8000CCF800304FF0807303F0BEFE11E00698DF
:102D9000408D069908850698BDF8161090F82820F1
:102DA000EC460023CCF800304FF0007303F0ACFE8B
:102DB000FFE7FFE706980C99039A03F089FF20B11B
:102DC000FFE701208DF81F0084E006980168406A43
:102DD000007888620699486A013048620699488DF1
:102DE000013848850699088D013808850698408D78
:102DF000E8B3FFE70698008DC8BBFFE706980C9B79
:102E000003996A4611608021002203F0A9FE20B1D7
:102E1000FFE701208DF81F005CE00698408DB0F5BB
:102E2000807F11D3FFE70699FF2008850698BDF83B
:102E3000161090F82820EC460023CCF800304FF014
:102E4000807303F061FE11E00698408D06990885B5
:102E50000698BDF8161090F82820EC460023CCF810
:102E600000304FF0007303F04FFEFFE7FFE7FFE78E
:102E70000698408D00289DD1FFE706980C99039A8B
:102E800003F0D2FE20B1FFE701208DF81F0021E002
:102E9000069801682020C86106990A6851684EF6B4
:102EA0000003CFF6006319405160069981F8410094
:102EB0000699002081F84200FFE70699002081F87A
:102EC0004000FFE700208DF81F0003E002208DF88E
:102ED0001F00FFE79DF81F0008B010BD00000000B4
:102EE00080B5B8B03790002036903590349033904C
:102EF000329002A8C021FDF76AFA3798006845F6BB
:102F00000001C4F2000188423DD1FFE70020039098
:102F100008210291239002A800F07AFC18B1FFE783
:102F2000FDF7EEFEFFE7FFE744F2E040C5F60200E2
:102F3000016841F002010160006800F002000190A8
:102F40000198FFE74FF44060329012203390002048
:102F5000349035900420369040F20040C5F60200CF
:102F600032A9FFF701FAFFE744F2E840C5F6020094
:102F7000016841F480010160006800F48000009065
:102F80000098FFE7FFE738B080BD000000000000B8
:102F900040F2B850C2F2004002784FF66001C2F22F
:102FA00004410868104408607047000000000000F9
:102FB00080B582B0032000F023F901F019FF44F23C
:102FC0001842C5F602021168C1F3032342F6C87124
:102FD000C0F60701CB5C03F01F03D84000900098B7
:102FE000126802F00F02895C01F01F01C84040F234
:102FF0000401C2F200410860009840F20001C2F2F0
:10300000004108600F2000F013F820B1FFE7012015
:103010008DF8070005E000F0BBF800208DF80700F0
:10302000FFE79DF8070002B080BD0000000000002F
:1030300080B582B0009040F2B850C2F200400078F3
:1030400020B9FFE701208DF8070030E040F20000D2
:10305000C2F20040006840F2B851C2F200410A7862
:103060004FF47A71B1FBF2F1B0FBF1F002F03CFEEB
:1030700020B1FFE701208DF8070018E000980F2825
:103080000DD8FFE700994FF0FF30002200F0A0F8C4
:10309000009840F2BC51C2F20041086003E00120F8
:1030A0008DF8070003E000208DF80700FFE79DF88A
:1030B000070002B080BD000010B581B000900098FC
:1030C00040784EF69851CEF2000108604EF6A051BD
:1030D000CEF20001086820F0010008600098406806
:1030E0004EF69C52CEF200021060DDF800E09EF831
:1030F0000C0000079EF80B2040EA02609EF80020BA
:103100009EF808309EF809C09EF80A4040EAC44084
:103110009EF80D4040EA84409EF80E4040EA44404C
:103120009EF80FE040EA0E4040EA0C2040EA4300DF
:103130001043086001B010BDBFF35F8F4EF62451FD
:10314000CEF20001086820F4803008604EF69451F9
:10315000CEF200010020086070470000000000006F
:1031600081B00090009840F001004EF69451CEF2EC
:10317000000108604EF62451CEF20001086840F4C8
:1031800080300860BFF34F8FBFF36F8F01B070477F
:1031900081B0FFE744F2F440C5F60200016841F057
:1031A00002010160006800F0020000900098FFE753
:1031B00001B070470000000080B582B0ADF8060095
:1031C000BDF9060005F044FA02B080BD0000000021
:1031D00080B586B0ADF816000491039205F050FA60
:1031E0000290BDF91600019002980499039A03F029
:1031F00077FF0146019805F04BFA06B080BD00004C
:1032000080B582B00190019805F066FA02B080BDE9
:1032100080B584B0029044F60C00C5F60200006848
:1032200000F004010020B0EB910F13D1FFE744F64A
:103230000C00C5F60200006800F007000299884201
:1032400004D0FFE701208DF80F002EE000208DF85C
:103250000F002AE044F60C01C5F60201086820F0D0
:103260000700029A10430860FFF782FA0190FFE717
:1032700044F60400C5F60200006800F40051002086
:10328000B0EB513F0DD1FFE7FFF772FA0199401AF9
:10329000B0F57A7F04D9FFE701208DF80F0004E034
:1032A000E6E700208DF80F00FFE79DF80F0004B05F
:1032B00080BD00000000000080B501F045FD44F233
:1032C0002041C5F602010968C1F3021242F6C87135
:1032D000C0F60701895C01F01F01C84080BD0000F5
:1032E00088B0079044F22840C5F60200016801F05A
:1032F000030106910068C0F30530059044F22C40AC
:10330000C5F602000068C0F300100490049844F26F
:103310003C41C5F60201096889B2C908484300EE7C
:10332000100AB8EE400A8DED020A0598002800F058
:103330001181FFE70698009048B1FFE70098012847
:1033400065D0FFE70098022800F08380A3E044F2F4
:103350000040C5F60200006800F020010020B0EB3C
:10336000511F31D0FFE744F20040C5F6020000686B
:10337000C0F3C10149F20000C0F2D030C840039050
:103380009DED030AB8EE400A9DED051AB8EE411A0C
:1033900080EE010A44F23840C5F6020000686FF37F
:1033A0005F2001EE100AB8EE411A9DED022A9FED52
:1033B0006F3A02EE031AB7EE002A31EE021A20EE3F
:1033C000010A8DED010A21E09DED050AB8EE401AD3
:1033D0009FED680A80EE010A44F23840C5F602000B
:1033E00000686FF35F2001EE100AB8EE411A9DED00
:1033F000022A9FED5E3A02EE031AB7EE002A31EE82
:10340000021A20EE010A8DED010AFFE765E09DED4D
:10341000050AB8EE401A9FED560A80EE010A44F202
:103420003840C5F6020000686FF35F2001EE100A15
:10343000B8EE411A9DED022A9FED4C3A02EE031AB6
:10344000B7EE002A31EE021A20EE010A8DED010AD4
:1034500043E09DED050AB8EE401A9FED430A80EE69
:10346000010A44F23840C5F6020000686FF35F209D
:1034700001EE100AB8EE411A9DED022A9FED3B3A8B
:1034800002EE031AB7EE002A31EE021A20EE010A0C
:103490008DED010A21E09DED050AB8EE401A9FED81
:1034A000340A80EE010A44F23840C5F60200006892
:1034B0006FF35F2001EE100AB8EE411A9DED022A6B
:1034C0009FED2A3A02EE031AB7EE002A31EE021AF5
:1034D00020EE010A8DED010AFFE79DED010A44F29D
:1034E0003840C5F60200016889B2490A01EE101A97
:1034F000B8EE411AB7EE002A31EE021A80EE010A48
:103500000799BCEEC00A81ED000A9DED010A016831
:10351000C1F3064101EE101AB8EE411A31EE021A5B
:1035200080EE010A0799BCEEC00A81ED010A9DED0B
:10353000010A0068C0F3066001EE100AB8EE411AF5
:1035400031EE021A80EE010A0798BCEEC00A80ED47
:10355000020A07E007990020086007994860079968
:103560008860FFE708B0704720BCBE4B0000003900
:103570000024744A0024744C88B0079044F2284018
:10358000C5F60200016801F0030106910068C0F36E
:103590000550059044F22C40C5F602000068C0F3C7
:1035A00000200490049844F24441C5F602010968E1
:1035B00089B2C908484300EE100AB8EE400A8DED02
:1035C000020A0598002800F01181FFE70698009094
:1035D00048B1FFE70098012865D0FFE7009802286E
:1035E00000F08380A3E044F20040C5F602000068CA
:1035F00000F020010020B0EB511F31D0FFE744F272
:103600000040C5F602000068C0F3C10149F20000A5
:10361000C0F2D030C84003909DED030AB8EE400AD6
:103620009DED051AB8EE411A80EE010A44F24040C1
:10363000C5F6020000686FF35F2001EE100AB8EED5
:10364000411A9DED022A9FED6F3A02EE031AB7EE82
:10365000002A31EE021A20EE010A8DED010A21E066
:103660009DED050AB8EE401A9FED680A80EE010A4A
:1036700044F24040C5F6020000686FF35F2001EE9F
:10368000100AB8EE411A9DED022A9FED5E3A02EE55
:10369000031AB7EE002A31EE021A20EE010A8DED70
:1036A000010AFFE765E09DED050AB8EE401A9FEDBF
:1036B000560A80EE010A44F24040C5F60200006856
:1036C0006FF35F2001EE100AB8EE411A9DED022A59
:1036D0009FED4C3A02EE031AB7EE002A31EE021AC1
:1036E00020EE010A8DED010A43E09DED050AB8EEDA
:1036F000401A9FED430A80EE010A44F24040C5F6AD
:10370000020000686FF35F2001EE100AB8EE411A64
:103710009DED022A9FED3B3A02EE031AB7EE002A16
:1037200031EE021A20EE010A8DED010A21E09DED35
:10373000050AB8EE401A9FED340A80EE010A44F201
:103740004040C5F6020000686FF35F2001EE100AEA
:10375000B8EE411A9DED022A9FED2A3A02EE031AB5
:10376000B7EE002A31EE021A20EE010A8DED010AB1
:10377000FFE79DED010A44F24040C5F602000168F2
:1037800089B2490A01EE101AB8EE411AB7EE002AC2
:1037900031EE021A80EE010A0799BCEEC00A81EDF3
:1037A000000A9DED010A0168C1F3064101EE101AFD
:1037B000B8EE411A31EE021A80EE010A0799BCEE0A
:1037C000C00A81ED010A9DED010A0068C0F30660A0
:1037D00001EE100AB8EE411A31EE021A80EE010A2B
:1037E0000798BCEEC00A80ED020A07E007990020A6
:1037F00008600799486007998860FFE708B070473C
:1038000020BCBE4B000000390024744A0024744CD4
:1038100080B59AB0189000208DF857008DF85600AA
:103820001898C0780007002848D5FFE71898806EE0
:10383000149078B1FFE71498B0F5801F13D0FFE71C
:103840001498B0F5001F16D0FFE71498B0F5401F8C
:1038500019D019E044F22C41C5F60201086840F481
:103860000030086014E018980830022103F074FC5E
:103870008DF857000CE018982830022103F054FD11
:103880008DF8570004E003E001208DF85700FFE7B2
:103890009DF8570060B9FFE744F25041C5F60201B8
:1038A000086820F44010189A926E1043086004E0F3
:1038B0009DF857008DF85600FFE7FFE7189840780D
:1038C000C007002840D0FFE71898806D13900428A7
:1038D00020D81399DFE801F0030C141C1D0044F2FA
:1038E0002C41C5F60201086840F40030086015E07C
:1038F00018980830002103F02FFC8DF857000DE0D8
:1039000018982830002103F00FFD8DF8570005E0CE
:1039100004E003E001208DF85700FFE79DF8570011
:1039200060B9FFE744F25041C5F60201086820F093
:103930000700189A926D1043086004E09DF8570044
:103940008DF85600FFE7FFE71898407880070028B9
:103950004BD5FFE71898C06D129088B1FFE7129819
:10396000402816D0FFE7129880281AD0FFE7129857
:10397000C0281ED0FFE71298B0F5807F1AD01AE059
:1039800044F22C41C5F60201086840F4003008609A
:1039900015E018980830002103F0DEFB8DF8570081
:1039A0000DE018982830002103F0BEFC8DF8570078
:1039B00005E004E003E001208DF85700FFE79DF8E3
:1039C000570060B9FFE744F25041C5F602010868AC
:1039D00020F4E070189AD26D1043086004E09DF85E
:1039E00057008DF85600FFE7FFE71898407840072A
:1039F000002850D5FFE71898D0F8A8001190A0B182
:103A0000FFE71198B0F5001F18D0FFE71198B0F547
:103A1000800F1BD0FFE71198B0F5C00F1ED0FFE755
:103A20001198B0F5000F1AD01AE044F22C41C5F6F7
:103A30000201086840F40030086015E0189808306A
:103A4000002103F089FB8DF857000DE0189828300D
:103A5000002103F069FC8DF8570005E004E003E065
:103A600001208DF85700FFE79DF8570068B9FFE780
:103A700044F25841C5F60201086820F46000189A23
:103A8000D2F8A8201043086004E09DF857008DF894
:103A90005600FFE7FFE7189840780007002850D548
:103AA000FFE71898D0F8AC001090A0B1FFE710988D
:103AB000B0F1807F18D0FFE71098B0F1007F1BD0E5
:103AC000FFE71098B0F1407F1ED0FFE71098B0F1EB
:103AD000806F1AD01AE044F22C41C5F60201086842
:103AE00040F40030086015E018980830002103F019
:103AF00033FB8DF857000DE018982830002103F0B3
:103B000013FC8DF8570005E004E003E001208DF878
:103B10005700FFE79DF8570068B9FFE744F25841A6
:103B2000C5F60201086820F0E060189AD2F8AC20CF
:103B30001043086004E09DF857008DF85600FFE739
:103B4000FFE71898C078800700283ED5FFE718984F
:103B5000C06C0F90F0B1FFE70F98102808D0FFE776
:103B60000F9820280DD0FFE70F98302811D012E0D1
:103B700044F22C41C5F60201086840F400300860A8
:103B80000DE018980830022103F0E6FA8DF857008E
:103B900005E004E003E001208DF85700FFE79DF801
:103BA000570060B9FFE744F24C41C5F602010868CE
:103BB00020F03000189AD26C1043086004E09DF8A1
:103BC00057008DF85600FFE7FFE718984078C006C9
:103BD00000284ED5FFE71898006E0E90A0B1FFE7C1
:103BE0000E98B0F5805F18D0FFE70E98B0F5005F33
:103BF0001BD0FFE70E98B0F5405F1ED0FFE70E9890
:103C0000B0F5804F1AD01AE044F22C41C5F60201FB
:103C1000086840F40030086015E01898083000216A
:103C200003F09AFA8DF857000DE01898283000211B
:103C300003F07AFB8DF8570005E004E003E0012073
:103C40008DF85700FFE79DF8570060B9FFE744F291
:103C50005041C5F60201086820F4E040189A126E3F
:103C60001043086004E09DF857008DF85600FFE708
:103C7000FFE718984078800600284CD5FFE7189891
:103C8000406E0D90C8B1FFE70D98B0F5803F15D09C
:103C9000FFE70D98B0F5003F18D0FFE70D98B0F59D
:103CA000403F1BD0FFE70D98B0F5802F17D0FFE7FE
:103CB0000D98B0F5A02F13D013E016E01898083037
:103CC000012103F049FA8DF857000EE018982830CA
:103CD000012103F029FB8DF8570006E005E004E020
:103CE00003E001208DF85700FFE79DF8570060B909
:103CF000FFE744F25041C5F60201086820F4E020D5
:103D0000189A526E1043086004E09DF857008DF831
:103D10005600FFE7FFE718984078400600284ED588
:103D2000FFE71898D0F8B0000C90C8B1FFE70C98E6
:103D3000B0F1805F15D0FFE70C98B0F1005F18D0AC
:103D4000FFE70C98B0F1405F1BD0FFE70C98B0F193
:103D5000804F17D0FFE70C98B0F1A04F13D013E0BD
:103D600016E018980830012103F0F6F98DF8570095
:103D70000EE018982830012103F0D6FA8DF857008C
:103D800006E005E004E003E001208DF85700FFE7BE
:103D90009DF8570068B9FFE744F25841C5F60201A3
:103DA000086820F0E040189AD2F8B020104308606C
:103DB00004E09DF857008DF85600FFE7FFE71898DC
:103DC0004078000600283BD5FFE71898006F0B905D
:103DD000D8B1FFE70B98B0F1805F05D0FFE70B98F3
:103DE000B0F1005F09D011E044F22C41C5F60201A8
:103DF000086840F4003008600CE018980830012191
:103E000003F0AAF98DF8570004E003E001208DF8D3
:103E10005700FFE79DF8570060B9FFE744F25041B3
:103E2000C5F60201086820F04050189A126F10433E
:103E3000086004E09DF857008DF85600FFE7FFE7A3
:103E40001898C078C007002837D0FFE71898806C12
:103E50000A90032817D80A99DFE801F014020B131F
:103E600044F22C41C5F60201086840F400300860B5
:103E70000DE018980830022103F06EF98DF8570014
:103E800005E004E003E001208DF85700FFE79DF80E
:103E9000570060B9FFE744F24C41C5F602010868DB
:103EA00020F00300189A926C1043086004E09DF81B
:103EB00057008DF85600FFE7FFE718988078400616
:103EC000002840F1B480FFE744F60001C5F6020186
:103ED000086840F480700860FEF74AFC1690FFE71F
:103EE00044F60000C5F602000068C00500280CD4A6
:103EF000FFE7FEF73DFC1699401A652804D3FFE75B
:103F000003208DF8570000E0EAE79DF857000028ED
:103F100040F08780FFE744F27040C5F60200006879
:103F200000F440701899D1F8B41001F4407188423F
:103F300013D0FFE744F27041C5F60201086820F48F
:103F400040701790086840F480300860086820F4DA
:103F50008030086017980860FFE71898D0F8B40020
:103F6000B0F5807F1FD1FFE7FEF702FC1690FFE758
:103F700044F27040C5F60200006800F00201002023
:103F8000B0EB510F0ED1FFE7FEF7F2FB1699401A86
:103F900041F28931884204D3FFE703208DF85700AE
:103FA00000E0E5E7FFE79DF85700A0BBFFE7FFE76C
:103FB0001898D0F8B40000F44070B0F5407F13D1E9
:103FC000FFE744F21041C5F60201086820F47C5076
:103FD000189AD2F8B4204FF6F043C0F6FF731A4097
:103FE00040EA1210086008E044F21041C5F60201F0
:103FF000086820F47C500860FFE71898D0F8B420D7
:104000006FF31F3244F27041C5F602010868104395
:104010000860FFE704E09DF857008DF85600FFE7C1
:1040200004E09DF857008DF85600FFE7FFE7189869
:104030000068C007002800F04C80FFE71898C06FA8
:10404000099028282BD80999DFE801F0152929299A
:104050002929292916292929292929291E292929EE
:1040600029292929262929292929292927292929C5
:1040700029292929280016E018980830012103F081
:104080006BF88DF857000EE018982830012103F0E6
:104090004BF98DF8570006E005E004E003E001204D
:1040A0008DF85700FFE79DF8570060B9FFE744F22D
:1040B0005441C5F60201086820F03800189AD26F02
:1040C0001043086004E09DF857008DF85600FFE7A4
:1040D000FFE7189800788007002839D5FFE718987F
:1040E000806F0890052819D80899DFE801F00304CB
:1040F0000C14151616E018980830012103F02CF85E
:104100008DF857000EE018982830012103F00CF9C3
:104110008DF8570006E005E004E003E001208DF88B
:104120005700FFE79DF8570060B9FFE744F254419C
:10413000C5F60201086820F00700189A926F104334
:10414000086004E09DF857008DF85600FFE7FFE790
:1041500018980078400700283BD5FFE71898D0F85A
:1041600094000790052819D80799DFE801F00304A7
:104170000C14151616E018980830012102F0ECFF17
:104180008DF857000EE018982830012103F0CCF884
:104190008DF8570006E005E004E003E001208DF80B
:1041A0005700FFE79DF8570068B9FFE744F2584110
:1041B000C5F60201086820F00700189AD2F894208A
:1041C0001043086004E09DF857008DF85600FFE7A3
:1041D000FFE718980078800600284ED5FFE718986A
:1041E000D0F890000690C8B1FFE70698B0F1805F64
:1041F00015D0FFE70698B0F1005F18D0FFE70698EA
:10420000B0F1405F1BD0FFE70698B0F1804F17D0A8
:10421000FFE70698B0F1A04F13D013E016E018980E
:104220000830002102F098FF8DF857000EE0189832
:104230002830022103F078F88DF8570006E005E0F9
:1042400004E003E001208DF85700FFE79DF85700D8
:1042500068B9FFE744F25441C5F60201086820F04E
:10426000E040189AD2F890201043086004E09DF8CE
:1042700057008DF85600FFE7FFE7189800784006D2
:1042800000284ED5FFE71898D0F89C000590C8B1DB
:10429000FFE70598B0F5806F15D0FFE70598B0F5FA
:1042A000006F18D0FFE70598B0F5406F1BD0FFE70F
:1042B0000598B0F5805F17D0FFE70598B0F5A05FCF
:1042C00013D013E016E018980830002102F044FFE4
:1042D0008DF857000EE018982830022103F024F8DA
:1042E0008DF8570006E005E004E003E001208DF8BA
:1042F0005700FFE79DF8570068B9FFE744F25841BF
:10430000C5F60201086820F4E050189AD2F89C2003
:104310001043086004E09DF857008DF85600FFE751
:10432000FFE718980078000600284ED5FFE7189898
:10433000D0F8A0000490C8B1FFE70498B0F5005F82
:1043400015D0FFE70498B0F5804F18D0FFE7049828
:10435000B0F5C04F1BD0FFE70498B0F5004F17D061
:10436000FFE70498B0F5204F13D013E016E018983B
:104370000830002102F0F0FE8DF857000EE018988A
:104380002830022102F0D0FF8DF8570006E005E04A
:1043900004E003E001208DF85700FFE79DF8570087
:1043A00068B9FFE744F25841C5F60201086820F4F5
:1043B0006040189AD2F8A0201043086004E09DF8ED
:1043C00057008DF85600FFE7FFE7189800780007C0
:1043D000002820D5FFE71898D0F88400B0F5805F5A
:1043E0000CD1FFE718982830022102F09DFF20B180
:1043F000FFE701208DF85600FFE7FFE744F2544144
:10440000C5F60201086820F44050189AD2F88420BA
:1044100010430860FFE718980078C006002820D5F0
:10442000FFE71898D0F89800B0F5807F0CD1FFE72F
:1044300018982830022102F077FF20B1FFE7012011
:104440008DF85600FFE7FFE744F25841C5F6020138
:10445000086820F44070189AD2F898201043086039
:10446000FFE718988078000700283CD5FFE71898E8
:10447000D0F8A400039050B1FFE70398B0F5803F57
:104480000DD0FFE70398B0F5003F10D010E018986A
:104490000830002102F060FE8DF857000CE01898FB
:1044A0002830022102F040FF8DF8570004E003E0BD
:1044B00001208DF85700FFE79DF8570068B9FFE726
:1044C00044F25841C5F60201086820F44030189AB9
:1044D000D2F8A4201043086004E09DF857008DF83E
:1044E0005600FFE7FFE718988078400700283FD57F
:1044F000FFE71898D0F888000290B0F5801F0AD026
:10450000FFE70298B0F5001F0ED0FFE70298B0F564
:10451000401F11D011E044F22C41C5F60201086899
:1045200040F4003008600CE018982830012102F0B7
:10453000FBFE8DF8570004E003E001208DF85700E2
:10454000FFE79DF8570068B9FFE744F25441C5F60C
:104550000201086820F44010189AD2F8882010430D
:10456000086004E09DF857008DF85600FFE7FFE76C
:1045700018988078C007A8B3FFE71898006D0190DD
:1045800028B1FFE70198B0F5803F09D010E044F270
:104590002C41C5F60201086840F4003008600BE0C9
:1045A00018980830022102F0D7FD8DF8570003E07B
:1045B00001208DF85700FFE79DF8570060B9FFE72D
:1045C00044F24C41C5F60201086820F48030189A84
:1045D000126D1043086004E09DF857008DF85600F6
:1045E000FFE7FFE71898C078800600280CD5FFE7A2
:1045F00018982830022102F097FE20B1FFE7012031
:104600008DF85600FFE7FFE71898807880070028AC
:104610003CD5FFE71898D0F880000090D0B1FFE7B4
:104620000098B0F5807F0AD0FFE70098B0F5007FD2
:104630000ED0FFE70098B0F5407F0AD00BE044F2BF
:104640002C41C5F60201086840F40030086006E01D
:1046500005E004E003E001208DF85700FFE79DF836
:10466000570068B9FFE744F25441C5F602010868F3
:1046700020F44070189AD2F880201043086004E0BB
:104680009DF857008DF85600FFE7FFE718988078EF
:10469000C00600280CD5FFE744F25041C5F60201E0
:1046A000086820F00040189A526F10430860FFE736
:1046B0001898C078C00600280DD5FFE744F21041D5
:1046C000C5F60201086820F48040189AD2F8B82094
:1046D00010430860FFE718988078800600280CD502
:1046E000FFE744F25041C5F60201086820F08070EF
:1046F000189AD26E10430860FFE71898C0784006F9
:10470000002811D5FFE7FFE744F21041C5F602018A
:10471000086820F4004008601898D0F8BC200868A9
:1047200010430860FFE7FFE71898C07800060028EC
:104730000CD5FFE744F24C41C5F60201086820F0B1
:104740004050189A526D10430860FFE7189880781F
:10475000000600280DD5FFE744F25441C5F60201DA
:10476000086820F44000189AD2F88C2010430860A2
:10477000FFE718980079C00790B1FFE71898083054
:10478000002102F0E9FC8DF857009DF8570008B9A8
:10479000FFE704E09DF857008DF85600FFE7FFE7BC
:1047A000189800798007002812D5FFE7189808307C
:1047B000012102F0D1FC8DF857009DF8570008B98F
:1047C000FFE704E09DF857008DF85600FFE7FFE78C
:1047D000189800794007002812D5FFE7189808308C
:1047E000022102F0B9FC8DF857009DF8570008B976
:1047F000FFE704E09DF857008DF85600FFE7FFE75C
:10480000189800790007002812D5FFE7189828307B
:10481000002102F089FD8DF857009DF8570008B976
:10482000FFE704E09DF857008DF85600FFE7FFE72B
:1048300018980079C006002812D5FFE7189828308C
:10484000012102F071FD8DF857009DF8570008B95D
:10485000FFE704E09DF857008DF85600FFE7FFE7FB
:10486000189800798006002812D5FFE7189828309C
:10487000022102F059FD8DF857009DF8570008B944
:10488000FFE704E09DF857008DF85600FFE7FFE7CB
:104890009DF8560020B9FFE700208DF8670003E07F
:1048A00001208DF86700FFE79DF867001AB080BD12
:1048B00080B586B004900391049820B9FFE70120E9
:1048C0008DF817003CE2039842F20001C5F2002186
:1048D000096801F00F01884216D9FFE742F2000093
:1048E000C5F20020016821F00F01039A1143016015
:1048F000006800F00F000399884204D0FFE7012010
:104900008DF817001CE2FFE70498007840070028A4
:1049100019D5FFE70498006944F21841C5F6020171
:10492000096801F0700188420CD9FFE744F2184190
:10493000C5F60201086820F07000049A126910435D
:104940000860FFE7FFE7049800780007002819D502
:10495000FFE70498406944F21C41C5F6020109686A
:1049600001F0700188420CD9FFE744F21C41C5F602
:104970000201086820F07000049A52691043086030
:10498000FFE7FFE704980078C006002819D5FFE785
:104990000498806944F21C41C5F60201096801F4DB
:1049A000E06188420CD9FFE744F21C41C5F60201E0
:1049B000086820F4E060049A926910430860FFE7F9
:1049C000FFE7049800788006002819D5FFE70498CF
:1049D000C06944F22041C5F60201096801F0700186
:1049E00088420CD9FFE744F22041C5F6020108686D
:1049F00020F07000049AD26910430860FFE7FFE7D7
:104A0000049800788007002819D5FFE70498C0684B
:104A100044F21841C5F60201096801F00F0188420D
:104A20000CD9FFE744F21841C5F60201086820F0EE
:104A30000F00049AD26810430860FFE7FFE704986C
:104A40000078C007002800F08C80FFE744F218418E
:104A5000C5F60201086820F47060049A9268104359
:104A6000086004984068022811D1FFE744F2004032
:104A7000C5F60200006800F400310020B0EB514F91
:104A800004D1FFE701208DF8170059E13EE00498BA
:104A90004068032811D1FFE744F20040C5F6020048
:104AA000006800F000710020B0EB516F04D1FFE707
:104AB00001208DF8170043E127E0049840680128A1
:104AC00011D1FFE744F20040C5F60200006800F48F
:104AD00080710020B0EB112F04D1FFE701208DF889
:104AE00017002DE110E044F20040C5F60200006816
:104AF00000F004010020B0EB910F04D1FFE701208A
:104B00008DF817001CE1FFE7FFE7FFE744F21041D3
:104B1000C5F60201086820F00700049A52681043A5
:104B20000860FDF725FE0190FFE744F21040C5F64E
:104B30000200006800F0380004994968B0EBC10F2A
:104B40000ED0FFE7FDF714FE0199401A41F28931BA
:104B5000884204D3FFE703208DF81700F0E0E4E774
:104B6000FFE7049800788007002819D5FFE704982C
:104B7000C06844F21841C5F60201096801F00F014E
:104B800088420CD2FFE744F21841C5F602010868DA
:104B900020F00F00049AD26810430860FFE7FFE797
:104BA000039842F20001C5F20021096801F00F01EB
:104BB000884216D2FFE742F20000C5F200200168E9
:104BC00021F00F01039A11430160006800F00F000B
:104BD0000399884204D0FFE701208DF81700AFE069
:104BE000FFE7049800784007002819D5FFE70498EC
:104BF000006944F21841C5F60201096801F070012C
:104C000088420CD2FFE744F21841C5F60201086859
:104C100020F07000049A126910430860FFE7FFE774
:104C2000049800780007002819D5FFE70498406928
:104C300044F21C41C5F60201096801F07001884286
:104C40000CD2FFE744F21C41C5F60201086820F0CF
:104C50007000049A526910430860FFE7FFE7049868
:104C60000078C006002819D5FFE70498806944F24F
:104C70001C41C5F60201096801F4E06188420CD2CA
:104C8000FFE744F21C41C5F60201086820F4E06029
:104C9000049A926910430860FFE7FFE704980078E0
:104CA0008006002819D5FFE70498C06944F2204126
:104CB000C5F60201096801F0700188420CD2FFE7D5
:104CC00044F22041C5F60201086820F07000049A01
:104CD000D26910430860FFE7FFE700F089F844F26B
:104CE0001842C5F602021168C1F3032342F6C871E7
:104CF000C0F60701CB5C03F01F03D840009000987A
:104D0000126802F00F02895C01F01F01C84040F2F6
:104D10000401C2F200410860009840F20001C2F2B2
:104D20000041086040F2BC50C2F200400068FEF74B
:104D30007FF98DF80B009DF80B008DF81700FFE749
:104D40009DF8170006B080BD80B582B000F050F825
:104D500044F21842C5F602021168C1F3032342F679
:104D6000C871C0F60701CB5C03F01F03D840019067
:104D70000198126802F00F02895C01F01F0120FA0D
:104D800001F140F20400C2F200400160019940F2DA
:104D90000002C2F200421160006802B080BD000053
:104DA00080B5FFF7D1FF44F21C41C5F60201096846
:104DB000C1F3021242F6C871C0F60701895C01F026
:104DC0001F01C84080BD000080B5FFF7BDFF44F261
:104DD0001C41C5F602010968C1F3022242F6C871FE
:104DE000C0F60701895C01F01F01C84080BD0000CA
:104DF0008AB044F21040C5F60200006800F03800A6
:104E000001460191182800F25F810199DFE811F055
:104E100019005C015C015C015C015C015C015C01EE
:104E20003A005C015C015C015C015C015C015C01BD
:104E300040005C015C015C015C015C015C015C01A7
:104E4000460044F20040C5F60200006800F0200170
:104E50000020B0EB511F0ED0FFE744F20040C5F632
:104E600002000068C0F3C10149F20000C0F2D03076
:104E7000C840029005E049F20000C0F2D030029034
:104E8000FFE727E140F60010C0F23D00029021E16B
:104E900047F64000C0F27D1002901BE144F228402A
:104EA000C5F60200016801F0030108910068C0F333
:104EB0000510079044F22C40C5F60200006800F08F
:104EC00001000690069844F23441C5F602010968D3
:104ED00089B2C908484300EE100AB8EE400A8DEDC9
:104EE000040A0798002800F0EB80FFE7089800907C
:104EF00048B1FFE70098012865D0FFE70098022835
:104F000000F08380A3E044F20040C5F60200006890
:104F100000F020010020B0EB511F31D0FFE744F238
:104F20000040C5F602000068C0F3C10149F200006C
:104F3000C0F2D030C84005909DED050AB8EE400A99
:104F40009DED071AB8EE411A80EE010A44F2304096
:104F5000C5F6020000686FF35F2001EE100AB8EE9C
:104F6000411A9DED042A9FED5E3A02EE031AB7EE58
:104F7000002A31EE021A20EE010A8DED030A21E02B
:104F80009DED070AB8EE401A9FED570A80EE010A20
:104F900044F23040C5F6020000686FF35F2001EE76
:104FA000100AB8EE411A9DED042A9FED4D3A02EE2B
:104FB000031AB7EE002A31EE021A20EE010A8DED37
:104FC000030AFFE765E09DED070AB8EE401A9FED82
:104FD000450A80EE010A44F23040C5F6020000683E
:104FE0006FF35F2001EE100AB8EE411A9DED042A1E
:104FF0009FED3B3A02EE031AB7EE002A31EE021A99
:1050000020EE010A8DED030A43E09DED070AB8EE9C
:10501000401A9FED320A80EE010A44F23040C5F694
:10502000020000686FF35F2001EE100AB8EE411A2B
:105030009DED042A9FED2A3A02EE031AB7EE002AEC
:1050400031EE021A20EE010A8DED030A21E09DEDFA
:10505000070AB8EE401A9FED230A80EE010A44F2D7
:105060003040C5F6020000686FF35F2001EE100AC1
:10507000B8EE411A9DED042A9FED193A02EE031A8B
:10508000B7EE002A31EE021A20EE010A8DED030A76
:10509000FFE744F23040C5F60200006881B201200B
:1050A00000EB512009909DED030A9DED091AB8EE21
:1050B000411A80EE010ABCEEC00A8DED020A02E040
:1050C00000200290FFE705E040F60010C0F23D002E
:1050D0000290FFE702980AB0704700BF20BCBE4BA9
:1050E000000000390024744A0024744C00000000C1
:1050F00080B58CB00A900A9828B9FFE701208DF896
:105100002F0000F09DBD0A980078C007002800F02D
:10511000B980FFE744F21040C5F60200006800F0D5
:105120003800069044F22840C5F602000068059059
:10513000069810280AD0FFE7069818281CD1FFE728
:10514000059800F00300022816D1FFE744F2004062
:10515000C5F60200006800F400310020B0EB514FAA
:1051600009D0FFE70A98406828B9FFE701208DF8C9
:105170002F0000F065BD84E0FFE70A984068B0F5B5
:10518000803F09D1FFE744F20041C5F602010868FB
:1051900040F48030086032E00A98406868B9FFE760
:1051A00044F20041C5F60201086820F4803008602E
:1051B000086820F48020086020E00A984068B0F574
:1051C000A02F0DD1FFE744F20041C5F602010868A7
:1051D00040F480200860086840F4803008600CE0EB
:1051E00044F20041C5F60201086820F480300860EE
:1051F000086820F480200860FFE7FFE7FFE7FFE78B
:105200000A984068F0B1FFE7FDF7B2FA0990FFE7AE
:1052100044F20040C5F60200006800F400310020AE
:10522000B0EB514F0DD1FFE7FDF7A2FA0999401AF3
:10523000652805D3FFE703208DF82F0000F000BD9F
:10524000E6E71DE0FDF794FA0990FFE744F200401D
:10525000C5F60200006800F400310020B0EB514FA9
:105260000DD0FFE7FDF784FA0999401A652805D3A8
:10527000FFE703208DF82F0000F0E2BCE6E7FFE730
:10528000FFE7FFE70A9800788007002840F11681C1
:10529000FFE744F21040C5F60200006800F0380055
:1052A000049044F22840C5F6020000680390049878
:1052B00050B1FFE70498182878D1FFE79DF80C005B
:1052C0008007002872D1FFE744F20040C5F60200D3
:1052D000006800F004010020B0EB910F09D0FFE757
:1052E0000A98C06828B9FFE701208DF82F0000F068
:1052F000A7BC44F20041C5F60201086820F019007D
:105300000A9AD26810430860FDF732FA0990FFE765
:1053100044F20040C5F60200006800F004010020DD
:10532000B0EB910F0DD1FFE7FDF722FA0999401A72
:10533000032805D3FFE703208DF82F0000F080BC81
:10534000E6E7FFE7FDF70CFA41F2030188421DD8BA
:10535000FFE70A98006940280AD1FFE744F20441B8
:10536000C5F602010868202262F3113008600CE0E3
:1053700044F20441C5F60201086820F47C300A9A20
:10538000126940EA02300860FFE70CE044F2044191
:10539000C5F60201086820F0FE400A9A126940EA48
:1053A00002600860FFE7FFE7FFE786E00A98C06851
:1053B00000285CD0FFE744F20041C5F6020108680E
:1053C00020F019000A9AD26810430860FDF7D0F95E
:1053D0000990FFE744F20040C5F60200006800F0C3
:1053E00004010020B0EB910F0DD1FFE7FDF7C0F9EC
:1053F0000999401A032805D3FFE703208DF82F00F1
:1054000000F01EBCE6E7FFE7FDF7AAF941F2030151
:1054100088421DD8FFE70A98006940280AD1FFE7B3
:1054200044F20441C5F602010868202262F31130FB
:1054300008600CE044F20441C5F60201086820F45B
:105440007C300A9A126940EA02300860FFE70CE0FB
:1054500044F20441C5F60201086820F0FE400A9AB1
:10546000126940EA02600860FFE7FFE724E044F2C7
:105470000041C5F60201086820F001000860FDF750
:1054800077F90990FFE744F20040C5F60200006892
:1054900000F004010020B0EB910F0CD0FFE7FDF706
:1054A00067F90999401A032804D3FFE703208DF810
:1054B0002F00C5E3E7E7FFE7FFE7FFE70A9800787B
:1054C000C006002840F1EB80FFE744F21040C5F62B
:1054D0000200006800F03800029044F22840C5F64F
:1054E000020000680190029808280AD0FFE702989D
:1054F000182850D1FFE7019800F0030001284AD195
:10550000FFE744F20040C5F60200006800F4807135
:105510000020B0EB112F09D0FFE70A98C06980285E
:1055200004D0FFE701208DF82F0089E3FFE7FDF7A6
:1055300017F941F2030188421DD8FFE70A98006A73
:1055400020280AD1FFE744F20441C5F602010868A9
:10555000102262F39E6008600CE044F20441C5F63C
:105560000201086820F0F8400A9A126A40EA826054
:105570000860FFE70CE044F20C41C5F60201086840
:1055800020F07C500A9A126A40EA02600860FFE745
:10559000FFE7FFE782E00A98C069002858D0FFE7DC
:1055A00044F20041C5F60201086840F0800008603E
:1055B000FDF7DEF80990FFE744F20040C5F602006F
:1055C000006800F480710020B0EB112F0CD1FFE7D0
:1055D000FDF7CEF80999401A032804D3FFE703200A
:1055E0008DF82F002CE3E7E7FFE7FDF7B9F841F26C
:1055F000030188421DD8FFE70A98006A20280AD1D3
:10560000FFE744F20441C5F602010868102262F384
:105610009E6008600CE044F20441C5F6020108688F
:1056200020F0F8400A9A126A40EA82600860FFE7B8
:105630000CE044F20C41C5F60201086820F07C50F1
:105640000A9A126A40EA02600860FFE7FFE724E076
:1056500044F20041C5F60201086820F080000860AD
:10566000FDF786F80990FFE744F20040C5F6020016
:10567000006800F480710020B0EB112F0CD0FFE720
:10568000FDF776F80999401A032804D3FFE70320B1
:105690008DF82F00D4E2E7E7FFE7FFE7FFE70A987E
:1056A0000078000700284FD5FFE70A98406928B323
:1056B000FFE744F27441C5F60201086840F00100BA
:1056C0000860FDF755F80990FFE744F27440C5F60D
:1056D0000200006800F002010020B0EB510F0CD175
:1056E000FFE7FDF745F80999401A032804D3FFE7BF
:1056F00003208DF82F00A3E2E7E724E044F2744191
:10570000C5F60201086820F001000860FDF730F8D6
:105710000990FFE744F27440C5F60200006800F00B
:1057200002010020B0EB510F0CD0FFE7FDF720F88D
:105730000999401A032804D3FFE703208DF82F00AE
:105740007EE2E7E7FFE7FFE70A9800788006002897
:105750004FD5FFE70A98806928B3FFE744F200417C
:10576000C5F60201086840F480500860FDF700F8B3
:105770000990FFE744F20040C5F60200006800F41B
:1057800000510020B0EB513F0CD1FFE7FCF7F0FFD8
:105790000999401A032804D3FFE703208DF82F004E
:1057A0004EE2E7E724E044F20041C5F60201086852
:1057B00020F480500860FCF7DBFF0990FFE744F21B
:1057C0000040C5F60200006800F400510020B0EB74
:1057D000513F0CD0FFE7FCF7CBFF0999401A032893
:1057E00004D3FFE703208DF82F0029E2E7E7FFE766
:1057F000FFE70A9800784007002840F1A780FFE7FC
:1058000044F60001C5F60201086840F480700860A3
:10581000FCF7AEFF0990FFE744F60000C5F6020072
:105820000068C00500280CD4FFE7FCF7A1FF099928
:10583000401A652804D3FFE703208DF82F00FFE10D
:10584000EAE7FFE70A988068012809D1FFE744F2F8
:105850007041C5F60201086840F00100086031E0BF
:105860000A98806868B9FFE744F27041C5F6020102
:10587000086820F001000860086820F00400086053
:105880001FE00A98806805280DD1FFE744F27041B7
:10589000C5F60201086840F004000860086840F09E
:1058A000010008600CE044F27041C5F6020108688E
:1058B00020F001000860086820F004000860FFE79D
:1058C000FFE7FFE7FFE70A988068F8B1FFE7FCF71A
:1058D0004FFF0990FFE744F27040C5F602000068F0
:1058E00000F002010020B0EB510F0ED1FFE7FCF7F2
:1058F0003FFF0999401A41F28931884204D3FFE7FA
:1059000003208DF82F009BE1E5E71EE0FCF730FF58
:105910000990FFE744F27040C5F60200006800F00D
:1059200002010020B0EB510F0ED0FFE7FCF720FF83
:105930000999401A41F28931884204D3FFE70320D4
:105940008DF82F007CE1E5E7FFE7FFE70A98406A62
:10595000002800F07181FFE744F21040C5F6020014
:10596000006800F03800182800F0E080FFE70A988F
:10597000406A022840F0B480FFE744F20041C5F6D7
:105980000201086820F080700860FCF7F1FE0990C1
:10599000FFE744F20040C5F60200006800F0007125
:1059A0000020B0EB516F0CD0FFE7FCF7E1FE099946
:1059B000401A032804D3FFE703208DF82F003FE1AE
:1059C000E7E7FFE744F22841C5F60201086840F224
:1059D000F33290430A9B9A6ADB6A42EA031210434D
:1059E00008600A99086BD1F834C08B6BCA6B013818
:1059F0006FF35F204FF60061CFF6FF7101EB4C2192
:105A000089B208440021CFF6FF7101EB034101F494
:105A1000FE0108444FF07F4101EB026101F0FE41BD
:105A2000084444F23041C5F602010860FFE744F241
:105A30002C41C5F602010091086820F001000860C1
:105A400044F23442C5F6020210684FF6F8739843E8
:105A50000A9B9B6C40EAC3001060086820F00C00B1
:105A60000A9A126C10430860086820F002000A9A33
:105A7000526C10430860086840F480300860086881
:105A800040F400300860086840F48020086008682E
:105A900040F00100086044F20041C5F602010868C8
:105AA00040F080700860FCF763FE0990FFE744F265
:105AB0000040C5F60200006800F000710020B0EB65
:105AC000516F0CD1FFE7FCF753FE0999401A0328E8
:105AD00004D3FFE703208DF82F00B1E0E7E724E0CF
